{
  "_format": "hh-sol-artifact-1",
  "contractName": "SecurityToken",
  "sourceName": "contracts/securities.sol",
  "abi": [
    {
      "inputs": [
        {
          "internalType": "string",
          "name": "_name",
          "type": "string"
        },
        {
          "internalType": "string",
          "name": "_symbol",
          "type": "string"
        },
        {
          "internalType": "string",
          "name": "_offeringName",
          "type": "string"
        },
        {
          "internalType": "string",
          "name": "_offeringType",
          "type": "string"
        },
        {
          "internalType": "uint256",
          "name": "_totalShares",
          "type": "uint256"
        },
        {
          "internalType": "uint256",
          "name": "_sharePrice",
          "type": "uint256"
        },
        {
          "internalType": "address",
          "name": "_custodian",
          "type": "address"
        }
      ],
      "stateMutability": "nonpayable",
      "type": "constructor"
    },
    {
      "inputs": [
        {
          "internalType": "address",
          "name": "spender",
          "type": "address"
        },
        {
          "internalType": "uint256",
          "name": "allowance",
          "type": "uint256"
        },
        {
          "internalType": "uint256",
          "name": "needed",
          "type": "uint256"
        }
      ],
      "name": "ERC20InsufficientAllowance",
      "type": "error"
    },
    {
      "inputs": [
        {
          "internalType": "address",
          "name": "sender",
          "type": "address"
        },
        {
          "internalType": "uint256",
          "name": "balance",
          "type": "uint256"
        },
        {
          "internalType": "uint256",
          "name": "needed",
          "type": "uint256"
        }
      ],
      "name": "ERC20InsufficientBalance",
      "type": "error"
    },
    {
      "inputs": [
        {
          "internalType": "address",
          "name": "approver",
          "type": "address"
        }
      ],
      "name": "ERC20InvalidApprover",
      "type": "error"
    },
    {
      "inputs": [
        {
          "internalType": "address",
          "name": "receiver",
          "type": "address"
        }
      ],
      "name": "ERC20InvalidReceiver",
      "type": "error"
    },
    {
      "inputs": [
        {
          "internalType": "address",
          "name": "sender",
          "type": "address"
        }
      ],
      "name": "ERC20InvalidSender",
      "type": "error"
    },
    {
      "inputs": [
        {
          "internalType": "address",
          "name": "spender",
          "type": "address"
        }
      ],
      "name": "ERC20InvalidSpender",
      "type": "error"
    },
    {
      "anonymous": false,
      "inputs": [
        {
          "indexed": true,
          "internalType": "address",
          "name": "owner",
          "type": "address"
        },
        {
          "indexed": true,
          "internalType": "address",
          "name": "spender",
          "type": "address"
        },
        {
          "indexed": false,
          "internalType": "uint256",
          "name": "value",
          "type": "uint256"
        }
      ],
      "name": "Approval",
      "type": "event"
    },
    {
      "anonymous": false,
      "inputs": [
        {
          "indexed": false,
          "internalType": "uint256",
          "name": "amount",
          "type": "uint256"
        }
      ],
      "name": "CheckBalance",
      "type": "event"
    },
    {
      "anonymous": false,
      "inputs": [
        {
          "indexed": true,
          "internalType": "address",
          "name": "from",
          "type": "address"
        },
        {
          "indexed": true,
          "internalType": "address",
          "name": "to",
          "type": "address"
        },
        {
          "indexed": false,
          "internalType": "uint256",
          "name": "value",
          "type": "uint256"
        }
      ],
      "name": "Transfer",
      "type": "event"
    },
    {
      "inputs": [
        {
          "internalType": "address",
          "name": "owner",
          "type": "address"
        },
        {
          "internalType": "address",
          "name": "spender",
          "type": "address"
        }
      ],
      "name": "allowance",
      "outputs": [
        {
          "internalType": "uint256",
          "name": "",
          "type": "uint256"
        }
      ],
      "stateMutability": "view",
      "type": "function"
    },
    {
      "inputs": [
        {
          "internalType": "address",
          "name": "spender",
          "type": "address"
        },
        {
          "internalType": "uint256",
          "name": "value",
          "type": "uint256"
        }
      ],
      "name": "approve",
      "outputs": [
        {
          "internalType": "bool",
          "name": "",
          "type": "bool"
        }
      ],
      "stateMutability": "nonpayable",
      "type": "function"
    },
    {
      "inputs": [
        {
          "internalType": "address",
          "name": "account",
          "type": "address"
        }
      ],
      "name": "balanceOf",
      "outputs": [
        {
          "internalType": "uint256",
          "name": "",
          "type": "uint256"
        }
      ],
      "stateMutability": "view",
      "type": "function"
    },
    {
      "inputs": [],
      "name": "custodian",
      "outputs": [
        {
          "internalType": "address",
          "name": "",
          "type": "address"
        }
      ],
      "stateMutability": "view",
      "type": "function"
    },
    {
      "inputs": [],
      "name": "decimals",
      "outputs": [
        {
          "internalType": "uint8",
          "name": "",
          "type": "uint8"
        }
      ],
      "stateMutability": "view",
      "type": "function"
    },
    {
      "inputs": [
        {
          "internalType": "address",
          "name": "user_account",
          "type": "address"
        }
      ],
      "name": "getBalance",
      "outputs": [
        {
          "internalType": "uint256",
          "name": "",
          "type": "uint256"
        }
      ],
      "stateMutability": "nonpayable",
      "type": "function"
    },
    {
      "inputs": [
        {
          "internalType": "address",
          "name": "investor",
          "type": "address"
        },
        {
          "internalType": "uint256",
          "name": "amount",
          "type": "uint256"
        }
      ],
      "name": "issueShares",
      "outputs": [],
      "stateMutability": "nonpayable",
      "type": "function"
    },
    {
      "inputs": [],
      "name": "issuedShares",
      "outputs": [
        {
          "internalType": "uint256",
          "name": "",
          "type": "uint256"
        }
      ],
      "stateMutability": "view",
      "type": "function"
    },
    {
      "inputs": [],
      "name": "name",
      "outputs": [
        {
          "internalType": "string",
          "name": "",
          "type": "string"
        }
      ],
      "stateMutability": "view",
      "type": "function"
    },
    {
      "inputs": [],
      "name": "offeringName",
      "outputs": [
        {
          "internalType": "string",
          "name": "",
          "type": "string"
        }
      ],
      "stateMutability": "view",
      "type": "function"
    },
    {
      "inputs": [],
      "name": "offeringType",
      "outputs": [
        {
          "internalType": "string",
          "name": "",
          "type": "string"
        }
      ],
      "stateMutability": "view",
      "type": "function"
    },
    {
      "inputs": [
        {
          "internalType": "address",
          "name": "investor",
          "type": "address"
        },
        {
          "internalType": "uint256",
          "name": "amount",
          "type": "uint256"
        }
      ],
      "name": "redeemShares",
      "outputs": [],
      "stateMutability": "nonpayable",
      "type": "function"
    },
    {
      "inputs": [],
      "name": "sharePrice",
      "outputs": [
        {
          "internalType": "uint256",
          "name": "",
          "type": "uint256"
        }
      ],
      "stateMutability": "view",
      "type": "function"
    },
    {
      "inputs": [],
      "name": "symbol",
      "outputs": [
        {
          "internalType": "string",
          "name": "",
          "type": "string"
        }
      ],
      "stateMutability": "view",
      "type": "function"
    },
    {
      "inputs": [],
      "name": "totalShares",
      "outputs": [
        {
          "internalType": "uint256",
          "name": "",
          "type": "uint256"
        }
      ],
      "stateMutability": "view",
      "type": "function"
    },
    {
      "inputs": [],
      "name": "totalSupply",
      "outputs": [
        {
          "internalType": "uint256",
          "name": "",
          "type": "uint256"
        }
      ],
      "stateMutability": "view",
      "type": "function"
    },
    {
      "inputs": [
        {
          "internalType": "address",
          "name": "to",
          "type": "address"
        },
        {
          "internalType": "uint256",
          "name": "value",
          "type": "uint256"
        }
      ],
      "name": "transfer",
      "outputs": [
        {
          "internalType": "bool",
          "name": "",
          "type": "bool"
        }
      ],
      "stateMutability": "nonpayable",
      "type": "function"
    },
    {
      "inputs": [
        {
          "internalType": "address",
          "name": "from",
          "type": "address"
        },
        {
          "internalType": "address",
          "name": "to",
          "type": "address"
        },
        {
          "internalType": "uint256",
          "name": "value",
          "type": "uint256"
        }
      ],
      "name": "transferFrom",
      "outputs": [
        {
          "internalType": "bool",
          "name": "",
          "type": "bool"
        }
      ],
      "stateMutability": "nonpayable",
      "type": "function"
    },
    {
      "inputs": [
        {
          "internalType": "address",
          "name": "newOwner",
          "type": "address"
        }
      ],
      "name": "transferOwnership",
      "outputs": [],
      "stateMutability": "nonpayable",
      "type": "function"
    }
  ],
  "bytecode": "0x60806040523480156200001157600080fd5b50604051620021c1380380620021c1833981810160405281019062000037919062000353565b868681600390816200004a9190620006c3565b5080600490816200005c9190620006c3565b5050508460069081620000709190620006c3565b508360079081620000829190620006c3565b50826008819055508160098190555080600b60006101000a81548173ffffffffffffffffffffffffffffffffffffffff021916908373ffffffffffffffffffffffffffffffffffffffff16021790555033600560006101000a81548173ffffffffffffffffffffffffffffffffffffffff021916908373ffffffffffffffffffffffffffffffffffffffff16021790555050505050505050620007aa565b6000604051905090565b600080fd5b600080fd5b600080fd5b600080fd5b6000601f19601f8301169050919050565b7f4e487b7100000000000000000000000000000000000000000000000000000000600052604160045260246000fd5b62000189826200013e565b810181811067ffffffffffffffff82111715620001ab57620001aa6200014f565b5b80604052505050565b6000620001c062000120565b9050620001ce82826200017e565b919050565b600067ffffffffffffffff821115620001f157620001f06200014f565b5b620001fc826200013e565b9050602081019050919050565b60005b83811015620002295780820151818401526020810190506200020c565b60008484015250505050565b60006200024c6200024684620001d3565b620001b4565b9050828152602081018484840111156200026b576200026a62000139565b5b6200027884828562000209565b509392505050565b600082601f83011262000298576200029762000134565b5b8151620002aa84826020860162000235565b91505092915050565b6000819050919050565b620002c881620002b3565b8114620002d457600080fd5b50565b600081519050620002e881620002bd565b92915050565b600073ffffffffffffffffffffffffffffffffffffffff82169050919050565b60006200031b82620002ee565b9050919050565b6200032d816200030e565b81146200033957600080fd5b50565b6000815190506200034d8162000322565b92915050565b600080600080600080600060e0888a0312156200037557620003746200012a565b5b600088015167ffffffffffffffff8111156200039657620003956200012f565b5b620003a48a828b0162000280565b975050602088015167ffffffffffffffff811115620003c857620003c76200012f565b5b620003d68a828b0162000280565b965050604088015167ffffffffffffffff811115620003fa57620003f96200012f565b5b620004088a828b0162000280565b955050606088015167ffffffffffffffff8111156200042c576200042b6200012f565b5b6200043a8a828b0162000280565b94505060806200044d8a828b01620002d7565b93505060a0620004608a828b01620002d7565b92505060c0620004738a828b016200033c565b91505092959891949750929550565b600081519050919050565b7f4e487b7100000000000000000000000000000000000000000000000000000000600052602260045260246000fd5b60006002820490506001821680620004d557607f821691505b602082108103620004eb57620004ea6200048d565b5b50919050565b60008190508160005260206000209050919050565b60006020601f8301049050919050565b600082821b905092915050565b600060088302620005557fffffffffffffffffffffffffffffffffffffffffffffffffffffffffffffffff8262000516565b62000561868362000516565b95508019841693508086168417925050509392505050565b6000819050919050565b6000620005a46200059e6200059884620002b3565b62000579565b620002b3565b9050919050565b6000819050919050565b620005c08362000583565b620005d8620005cf82620005ab565b84845462000523565b825550505050565b600090565b620005ef620005e0565b620005fc818484620005b5565b505050565b5b81811015620006245762000618600082620005e5565b60018101905062000602565b5050565b601f82111562000673576200063d81620004f1565b620006488462000506565b8101602085101562000658578190505b62000670620006678562000506565b83018262000601565b50505b505050565b600082821c905092915050565b6000620006986000198460080262000678565b1980831691505092915050565b6000620006b3838362000685565b9150826002028217905092915050565b620006ce8262000482565b67ffffffffffffffff811115620006ea57620006e96200014f565b5b620006f68254620004bc565b6200070382828562000628565b600060209050601f8311600181146200073b576000841562000726578287015190505b620007328582620006a5565b865550620007a2565b601f1984166200074b86620004f1565b60005b8281101562000775578489015182556001820191506020850194506020810190506200074e565b8683101562000795578489015162000791601f89168262000685565b8355505b6001600288020188555050505b505050505050565b611a0780620007ba6000396000f3fe608060405234801561001057600080fd5b50600436106101215760003560e01c806387269729116100ad578063dd62ed3e11610071578063dd62ed3e14610310578063e74bffc014610340578063efc7a8ee1461035e578063f2fde38b1461037a578063f8b2cb4f1461039657610121565b8063872697291461026a5780638862d26a1461028857806395d89b41146102a6578063a9059cbb146102c4578063b8aa3775146102f457610121565b806323b872dd116100f457806323b872dd146101b0578063313ce567146101e0578063375b74c3146101fe5780633a98ef391461021c57806370a082311461023a57610121565b806306fdde0314610126578063095ea7b31461014457806318160ddd146101745780632208830d14610192575b600080fd5b61012e6103c6565b60405161013b91906113bf565b60405180910390f35b61015e6004803603810190610159919061147a565b610458565b60405161016b91906114d5565b60405180910390f35b61017c61047b565b60405161018991906114ff565b60405180910390f35b61019a610485565b6040516101a791906114ff565b60405180910390f35b6101ca60048036038101906101c5919061151a565b61048b565b6040516101d791906114d5565b60405180910390f35b6101e86104ba565b6040516101f59190611589565b60405180910390f35b6102066104c3565b60405161021391906115b3565b60405180910390f35b6102246104e9565b60405161023191906114ff565b60405180910390f35b610254600480360381019061024f91906115ce565b6104ef565b60405161026191906114ff565b60405180910390f35b610272610537565b60405161027f91906114ff565b60405180910390f35b61029061053d565b60405161029d91906113bf565b60405180910390f35b6102ae6105cb565b6040516102bb91906113bf565b60405180910390f35b6102de60048036038101906102d9919061147a565b61065d565b6040516102eb91906114d5565b60405180910390f35b61030e6004803603810190610309919061147a565b610680565b005b61032a600480360381019061032591906115fb565b6107f1565b60405161033791906114ff565b60405180910390f35b610348610878565b60405161035591906113bf565b60405180910390f35b6103786004803603810190610373919061147a565b610906565b005b610394600480360381019061038f91906115ce565b610a7e565b005b6103b060048036038101906103ab91906115ce565b610bc1565b6040516103bd91906114ff565b60405180910390f35b6060600380546103d59061166a565b80601f01602080910402602001604051908101604052809291908181526020018280546104019061166a565b801561044e5780601f106104235761010080835404028352916020019161044e565b820191906000526020600020905b81548152906001019060200180831161043157829003601f168201915b5050505050905090565b600080610463610c8d565b9050610470818585610c95565b600191505092915050565b6000600254905090565b600a5481565b600080610496610c8d565b90506104a3858285610ca7565b6104ae858585610d3b565b60019150509392505050565b60006012905090565b600b60009054906101000a900473ffffffffffffffffffffffffffffffffffffffff1681565b60085481565b60008060008373ffffffffffffffffffffffffffffffffffffffff1673ffffffffffffffffffffffffffffffffffffffff168152602001908152602001600020549050919050565b60095481565b6007805461054a9061166a565b80601f01602080910402602001604051908101604052809291908181526020018280546105769061166a565b80156105c35780601f10610598576101008083540402835291602001916105c3565b820191906000526020600020905b8154815290600101906020018083116105a657829003601f168201915b505050505081565b6060600480546105da9061166a565b80601f01602080910402602001604051908101604052809291908181526020018280546106069061166a565b80156106535780601f1061062857610100808354040283529160200191610653565b820191906000526020600020905b81548152906001019060200180831161063657829003601f168201915b5050505050905090565b600080610668610c8d565b9050610675818585610d3b565b600191505092915050565b600560009054906101000a900473ffffffffffffffffffffffffffffffffffffffff1673ffffffffffffffffffffffffffffffffffffffff163373ffffffffffffffffffffffffffffffffffffffff1614610710576040517f08c379a00000000000000000000000000000000000000000000000000000000081526004016107079061170d565b60405180910390fd5b600073ffffffffffffffffffffffffffffffffffffffff168273ffffffffffffffffffffffffffffffffffffffff160361077f576040517f08c379a000000000000000000000000000000000000000000000000000000000815260040161077690611779565b60405180910390fd5b80610789836104ef565b10156107ca576040517f08c379a00000000000000000000000000000000000000000000000000000000081526004016107c1906117e5565b60405180910390fd5b6107d48282610e2f565b80600a60008282546107e69190611834565b925050819055505050565b6000600160008473ffffffffffffffffffffffffffffffffffffffff1673ffffffffffffffffffffffffffffffffffffffff16815260200190815260200160002060008373ffffffffffffffffffffffffffffffffffffffff1673ffffffffffffffffffffffffffffffffffffffff16815260200190815260200160002054905092915050565b600680546108859061166a565b80601f01602080910402602001604051908101604052809291908181526020018280546108b19061166a565b80156108fe5780601f106108d3576101008083540402835291602001916108fe565b820191906000526020600020905b8154815290600101906020018083116108e157829003601f168201915b505050505081565b600560009054906101000a900473ffffffffffffffffffffffffffffffffffffffff1673ffffffffffffffffffffffffffffffffffffffff163373ffffffffffffffffffffffffffffffffffffffff1614610996576040517f08c379a000000000000000000000000000000000000000000000000000000000815260040161098d9061170d565b60405180910390fd5b600073ffffffffffffffffffffffffffffffffffffffff168273ffffffffffffffffffffffffffffffffffffffff1603610a05576040517f08c379a00000000000000000000000000000000000000000000000000000000081526004016109fc90611779565b60405180910390fd5b60085481600a54610a169190611868565b1115610a57576040517f08c379a0000000000000000000000000000000000000000000000000000000008152600401610a4e906118e8565b60405180910390fd5b610a618282610eb1565b80600a6000828254610a739190611868565b925050819055505050565b600560009054906101000a900473ffffffffffffffffffffffffffffffffffffffff1673ffffffffffffffffffffffffffffffffffffffff163373ffffffffffffffffffffffffffffffffffffffff1614610b0e576040517f08c379a0000000000000000000000000000000000000000000000000000000008152600401610b059061170d565b60405180910390fd5b600073ffffffffffffffffffffffffffffffffffffffff168173ffffffffffffffffffffffffffffffffffffffff1603610b7d576040517f08c379a0000000000000000000000000000000000000000000000000000000008152600401610b749061197a565b60405180910390fd5b80600560006101000a81548173ffffffffffffffffffffffffffffffffffffffff021916908373ffffffffffffffffffffffffffffffffffffffff16021790555050565b60008073ffffffffffffffffffffffffffffffffffffffff168273ffffffffffffffffffffffffffffffffffffffff1603610c31576040517f08c379a0000000000000000000000000000000000000000000000000000000008152600401610c2890611779565b60405180910390fd5b60008273ffffffffffffffffffffffffffffffffffffffff163190507f7c4b3ebe24b67f845d481885128ad41f55e5d927e00e2573453e1a8cf437b75c81604051610c7c91906114ff565b60405180910390a180915050919050565b600033905090565b610ca28383836001610f33565b505050565b6000610cb384846107f1565b90507fffffffffffffffffffffffffffffffffffffffffffffffffffffffffffffffff8114610d355781811015610d25578281836040517ffb8f41b2000000000000000000000000000000000000000000000000000000008152600401610d1c9392919061199a565b60405180910390fd5b610d3484848484036000610f33565b5b50505050565b600073ffffffffffffffffffffffffffffffffffffffff168373ffffffffffffffffffffffffffffffffffffffff1603610dad5760006040517f96c6fd1e000000000000000000000000000000000000000000000000000000008152600401610da491906115b3565b60405180910390fd5b600073ffffffffffffffffffffffffffffffffffffffff168273ffffffffffffffffffffffffffffffffffffffff1603610e1f5760006040517fec442f05000000000000000000000000000000000000000000000000000000008152600401610e1691906115b3565b60405180910390fd5b610e2a83838361110a565b505050565b600073ffffffffffffffffffffffffffffffffffffffff168273ffffffffffffffffffffffffffffffffffffffff1603610ea15760006040517f96c6fd1e000000000000000000000000000000000000000000000000000000008152600401610e9891906115b3565b60405180910390fd5b610ead8260008361110a565b5050565b600073ffffffffffffffffffffffffffffffffffffffff168273ffffffffffffffffffffffffffffffffffffffff1603610f235760006040517fec442f05000000000000000000000000000000000000000000000000000000008152600401610f1a91906115b3565b60405180910390fd5b610f2f6000838361110a565b5050565b600073ffffffffffffffffffffffffffffffffffffffff168473ffffffffffffffffffffffffffffffffffffffff1603610fa55760006040517fe602df05000000000000000000000000000000000000000000000000000000008152600401610f9c91906115b3565b60405180910390fd5b600073ffffffffffffffffffffffffffffffffffffffff168373ffffffffffffffffffffffffffffffffffffffff16036110175760006040517f94280d6200000000000000000000000000000000000000000000000000000000815260040161100e91906115b3565b60405180910390fd5b81600160008673ffffffffffffffffffffffffffffffffffffffff1673ffffffffffffffffffffffffffffffffffffffff16815260200190815260200160002060008573ffffffffffffffffffffffffffffffffffffffff1673ffffffffffffffffffffffffffffffffffffffff168152602001908152602001600020819055508015611104578273ffffffffffffffffffffffffffffffffffffffff168473ffffffffffffffffffffffffffffffffffffffff167f8c5be1e5ebec7d5bd14f71427d1e84f3dd0314c0f7b2291e5b200ac8c7c3b925846040516110fb91906114ff565b60405180910390a35b50505050565b600073ffffffffffffffffffffffffffffffffffffffff168373ffffffffffffffffffffffffffffffffffffffff160361115c5780600260008282546111509190611868565b9250508190555061122f565b60008060008573ffffffffffffffffffffffffffffffffffffffff1673ffffffffffffffffffffffffffffffffffffffff168152602001908152602001600020549050818110156111e8578381836040517fe450d38c0000000000000000000000000000000000000000000000000000000081526004016111df9392919061199a565b60405180910390fd5b8181036000808673ffffffffffffffffffffffffffffffffffffffff1673ffffffffffffffffffffffffffffffffffffffff16815260200190815260200160002081905550505b600073ffffffffffffffffffffffffffffffffffffffff168273ffffffffffffffffffffffffffffffffffffffff160361127857806002600082825403925050819055506112c5565b806000808473ffffffffffffffffffffffffffffffffffffffff1673ffffffffffffffffffffffffffffffffffffffff168152602001908152602001600020600082825401925050819055505b8173ffffffffffffffffffffffffffffffffffffffff168373ffffffffffffffffffffffffffffffffffffffff167fddf252ad1be2c89b69c2b068fc378daa952ba7f163c4a11628f55a4df523b3ef8360405161132291906114ff565b60405180910390a3505050565b600081519050919050565b600082825260208201905092915050565b60005b8381101561136957808201518184015260208101905061134e565b60008484015250505050565b6000601f19601f8301169050919050565b60006113918261132f565b61139b818561133a565b93506113ab81856020860161134b565b6113b481611375565b840191505092915050565b600060208201905081810360008301526113d98184611386565b905092915050565b600080fd5b600073ffffffffffffffffffffffffffffffffffffffff82169050919050565b6000611411826113e6565b9050919050565b61142181611406565b811461142c57600080fd5b50565b60008135905061143e81611418565b92915050565b6000819050919050565b61145781611444565b811461146257600080fd5b50565b6000813590506114748161144e565b92915050565b60008060408385031215611491576114906113e1565b5b600061149f8582860161142f565b92505060206114b085828601611465565b9150509250929050565b60008115159050919050565b6114cf816114ba565b82525050565b60006020820190506114ea60008301846114c6565b92915050565b6114f981611444565b82525050565b600060208201905061151460008301846114f0565b92915050565b600080600060608486031215611533576115326113e1565b5b60006115418682870161142f565b93505060206115528682870161142f565b925050604061156386828701611465565b9150509250925092565b600060ff82169050919050565b6115838161156d565b82525050565b600060208201905061159e600083018461157a565b92915050565b6115ad81611406565b82525050565b60006020820190506115c860008301846115a4565b92915050565b6000602082840312156115e4576115e36113e1565b5b60006115f28482850161142f565b91505092915050565b60008060408385031215611612576116116113e1565b5b60006116208582860161142f565b92505060206116318582860161142f565b9150509250929050565b7f4e487b7100000000000000000000000000000000000000000000000000000000600052602260045260246000fd5b6000600282049050600182168061168257607f821691505b6020821081036116955761169461163b565b5b50919050565b7f4f6e6c79206f776e65722063616e2063616c6c20746869732066756e6374696f60008201527f6e00000000000000000000000000000000000000000000000000000000000000602082015250565b60006116f760218361133a565b91506117028261169b565b604082019050919050565b60006020820190508181036000830152611726816116ea565b9050919050565b7f496e76616c696420616464726573730000000000000000000000000000000000600082015250565b6000611763600f8361133a565b915061176e8261172d565b602082019050919050565b6000602082019050818103600083015261179281611756565b9050919050565b7f496e73756666696369656e742062616c616e6365000000000000000000000000600082015250565b60006117cf60148361133a565b91506117da82611799565b602082019050919050565b600060208201905081810360008301526117fe816117c2565b9050919050565b7f4e487b7100000000000000000000000000000000000000000000000000000000600052601160045260246000fd5b600061183f82611444565b915061184a83611444565b925082820390508181111561186257611861611805565b5b92915050565b600061187382611444565b915061187e83611444565b925082820190508082111561189657611895611805565b5b92915050565b7f4578636565647320746f74616c20617661696c61626c65207368617265730000600082015250565b60006118d2601e8361133a565b91506118dd8261189c565b602082019050919050565b60006020820190508181036000830152611901816118c5565b9050919050565b7f4e6577206f776e65722063616e6e6f7420626520746865207a65726f2061646460008201527f7265737300000000000000000000000000000000000000000000000000000000602082015250565b600061196460248361133a565b915061196f82611908565b604082019050919050565b6000602082019050818103600083015261199381611957565b9050919050565b60006060820190506119af60008301866115a4565b6119bc60208301856114f0565b6119c960408301846114f0565b94935050505056fea26469706673582212208986da3179460a4c635dab00024b967a27675d5e7f0ddf7fba83b8157565f06964736f6c63430008140033",
  "linkReferences": {},
  "deployedLinkReferences": {}
}